{
  "contractName": "RadicalMarket",
  "abi": [
    {
      "inputs": [
        {
          "internalType": "address",
          "name": "land",
          "type": "address"
        }
      ],
      "stateMutability": "nonpayable",
      "type": "constructor"
    },
    {
      "anonymous": false,
      "inputs": [
        {
          "indexed": false,
          "internalType": "uint256",
          "name": "tokenId",
          "type": "uint256"
        },
        {
          "indexed": false,
          "internalType": "address",
          "name": "from",
          "type": "address"
        },
        {
          "indexed": false,
          "internalType": "uint256",
          "name": "pricePerDay",
          "type": "uint256"
        },
        {
          "indexed": false,
          "internalType": "uint256",
          "name": "total",
          "type": "uint256"
        }
      ],
      "name": "Bid",
      "type": "event"
    },
    {
      "anonymous": false,
      "inputs": [
        {
          "indexed": false,
          "internalType": "uint256",
          "name": "tokenId",
          "type": "uint256"
        }
      ],
      "name": "CurrentLenderUpdated",
      "type": "event"
    },
    {
      "anonymous": false,
      "inputs": [
        {
          "indexed": false,
          "internalType": "uint256",
          "name": "tokenId",
          "type": "uint256"
        }
      ],
      "name": "LandRegistered",
      "type": "event"
    },
    {
      "anonymous": false,
      "inputs": [
        {
          "indexed": false,
          "internalType": "uint256",
          "name": "tokenId",
          "type": "uint256"
        }
      ],
      "name": "LandUnregistered",
      "type": "event"
    },
    {
      "anonymous": false,
      "inputs": [
        {
          "indexed": false,
          "internalType": "uint256",
          "name": "tokenId",
          "type": "uint256"
        }
      ],
      "name": "PendingLenderUpdated",
      "type": "event"
    },
    {
      "inputs": [
        {
          "internalType": "uint256[]",
          "name": "tokenids",
          "type": "uint256[]"
        }
      ],
      "name": "registerLands",
      "outputs": [],
      "stateMutability": "nonpayable",
      "type": "function"
    },
    {
      "inputs": [
        {
          "internalType": "uint256[]",
          "name": "tokenids",
          "type": "uint256[]"
        }
      ],
      "name": "deregisterLands",
      "outputs": [],
      "stateMutability": "nonpayable",
      "type": "function"
    },
    {
      "inputs": [
        {
          "internalType": "uint256",
          "name": "tokenId",
          "type": "uint256"
        },
        {
          "internalType": "uint256",
          "name": "pricePerDay",
          "type": "uint256"
        }
      ],
      "name": "bid",
      "outputs": [],
      "stateMutability": "payable",
      "type": "function",
      "payable": true
    },
    {
      "inputs": [
        {
          "internalType": "uint256",
          "name": "tokenId",
          "type": "uint256"
        }
      ],
      "name": "take",
      "outputs": [],
      "stateMutability": "nonpayable",
      "type": "function"
    },
    {
      "inputs": [],
      "name": "refund",
      "outputs": [],
      "stateMutability": "nonpayable",
      "type": "function"
    },
    {
      "inputs": [
        {
          "internalType": "uint256",
          "name": "tokenId",
          "type": "uint256"
        }
      ],
      "name": "getLandInfo",
      "outputs": [
        {
          "components": [
            {
              "internalType": "address",
              "name": "currentLender",
              "type": "address"
            },
            {
              "internalType": "uint256",
              "name": "currentPricePerDay",
              "type": "uint256"
            },
            {
              "internalType": "uint256",
              "name": "currentCollateral",
              "type": "uint256"
            },
            {
              "internalType": "uint256",
              "name": "lastAccountTime",
              "type": "uint256"
            },
            {
              "internalType": "uint256",
              "name": "graceUntil",
              "type": "uint256"
            },
            {
              "internalType": "address",
              "name": "pendingLender",
              "type": "address"
            },
            {
              "internalType": "uint256",
              "name": "pendingPricePerDay",
              "type": "uint256"
            },
            {
              "internalType": "uint256",
              "name": "pendingCollateral",
              "type": "uint256"
            }
          ],
          "internalType": "struct LandInfo",
          "name": "",
          "type": "tuple"
        }
      ],
      "stateMutability": "view",
      "type": "function",
      "constant": true
    }
  ],
  "bytecode": "0x6080604052600180546001600160a01b03191633178155655af3107a400060055560065560c8600755600060085534801561003957600080fd5b50604051610e54380380610e548339810160408190526100589161007d565b600080546001600160a01b0319166001600160a01b03929092169190911790556100ab565b60006020828403121561008e578081fd5b81516001600160a01b03811681146100a4578182fd5b9392505050565b610d9a806100ba6000396000f3fe6080604052600436106100555760003560e01c80634fd9efc41461005a578063590e1ae31461007c578063598647f8146100915780636f6f9bef146100a457806392047f9a1461013a578063ee808a6b1461015a575b600080fd5b34801561006657600080fd5b5061007a610075366004610c68565b61017a565b005b34801561008857600080fd5b5061007a61041c565b61007a61009f366004610c80565b6104aa565b3480156100b057600080fd5b506100c46100bf366004610c68565b610915565b604051610131919060006101008201905060018060a01b03808451168352602084015160208401526040840151604084015260608401516060840152608084015160808401528060a08501511660a08401525060c083015160c083015260e083015160e083015292915050565b60405180910390f35b34801561014657600080fd5b5061007a610155366004610bf8565b6109e8565b34801561016657600080fd5b5061007a610175366004610bf8565b610a63565b60008181526004602052604090205460ff166101d45760405162461bcd60e51b81526020600482015260146024820152735f6c616e64206e6f7420617661696c61626c652160601b60448201526064015b60405180910390fd5b600081815260026020526040902060058101546001600160a01b031661022c5760405162461bcd60e51b815260206004820152600d60248201526c6e6f6e652063616e2074616b6560981b60448201526064016101cb565b61023581610a8d565b600281015461032c57600781018054600283015560058201805483546001600160a01b038083166001600160a01b031992831681178755600687018054600189015560006004808a018290554260038b015597819055939094169094559181905554604051630585816360e51b81529384018690526024840192909252169063b0b02c6090604401600060405180830381600087803b1580156102d757600080fd5b505af11580156102eb573d6000803e3d6000fd5b505050507f1b216aa857f2d6124509a37fdbb4ba7064e9ddf40167ea06c337fc74f08d119c8260405161032091815260200190565b60405180910390a15050565b80600601548160010154108015610347575042816004015411155b1561041857600281015481546001600160a01b03166000908152600360205260408120805490919061037a908490610cc5565b9091555050600781018054600283015560058201805483546001600160a01b038083166001600160a01b031992831681178755600687018054600189015560006004808a018290554260038b015597819055939094169094559181905554604051630585816360e51b81529384018690526024840192909252169063b0b02c6090604401600060405180830381600087803b1580156102d757600080fd5b5050565b336000908152600360205260409020548061046f5760405162461bcd60e51b81526020600482015260136024820152726e6f20726566756e6420617661696c61626c6560681b60448201526064016101cb565b336000818152600360205260408082208290555183156108fc0291849190818181858888f19350505050158015610418573d6000803e3d6000fd5b60008281526004602052604090205460ff166104ff5760405162461bcd60e51b81526020600482015260146024820152735f6c616e64206e6f7420617661696c61626c652160601b60448201526064016101cb565b600082815260026020526040902080546001600160a01b03163314156106555761052881610a8d565b80600101548210156105725760405162461bcd60e51b815260206004820152601360248201527263616e206e6f74206c6f77657220707269636560681b60448201526064016101cb565b806006015482116105c55760405162461bcd60e51b815260206004820152601d60248201527f6e65656420746f206f75746269642074686520636f6d70657469746f7200000060448201526064016101cb565b60028101546105d49034610cc5565b6006546105e19084610cfd565b11156106275760405162461bcd60e51b81526020600482015260156024820152741b9bdd08195b9bdd59da0818dbdb1b185d195c985b605a1b60448201526064016101cb565b818160010181905550348160020160008282546106449190610cc5565b9091555050600060048201556108ca565b34600654836106649190610cfd565b11156106aa5760405162461bcd60e51b81526020600482015260156024820152741b9bdd08195b9bdd59da0818dbdb1b185d195c985b605a1b60448201526064016101cb565b80546001600160a01b0316156107c1578060060154821161070d5760405162461bcd60e51b815260206004820152601d60248201527f6e65656420746f206f75746269642074686520636f6d70657469746f7200000060448201526064016101cb565b61071681610a8d565b600781015460058201546001600160a01b031660009081526003602052604081208054909190610747908490610cc5565b90915550506005810180546001600160a01b03191633179055600681018290553460078201556004810154610789576007546107839042610cc5565b60048201555b6040518381527f22521132841d792296fe939ed8ad2aadbb831e7a21daf87987129a5e90da5a569060200160405180910390a16108ca565b6005548210156108075760405162461bcd60e51b815260206004820152601160248201527050726963652f64617920746f6f206c6f7760781b60448201526064016101cb565b80546001600160a01b03191633908117825560018201839055346002830155426003830155600054604051630585816360e51b81526004810186905260248101929092526001600160a01b03169063b0b02c6090604401600060405180830381600087803b15801561087857600080fd5b505af115801561088c573d6000803e3d6000fd5b505050507f1b216aa857f2d6124509a37fdbb4ba7064e9ddf40167ea06c337fc74f08d119c836040516108c191815260200190565b60405180910390a15b604080518481523360208201529081018390523460608201527f3138d8d517460c959fb333d4e8d87ea984f1cf15d6742c02e2955dd27a622b709060800160405180910390a1505050565b61096f60405180610100016040528060006001600160a01b031681526020016000815260200160008152602001600081526020016000815260200160006001600160a01b0316815260200160008152602001600081525090565b5060009081526002602081815260409283902083516101008101855281546001600160a01b0390811682526001830154938201939093529281015493830193909352600383015460608301526004830154608083015260058301541660a0820152600682015460c082015260079091015460e082015290565b6001546001600160a01b03163314610a125760405162461bcd60e51b81526004016101cb90610ca1565b60005b81811015610a5e57610a4c838383818110610a4057634e487b7160e01b600052603260045260246000fd5b90506020020135610b0e565b80610a5681610d33565b915050610a15565b505050565b6001546001600160a01b031633146104185760405162461bcd60e51b81526004016101cb90610ca1565b600062015180826003015442610aa39190610d1c565b8360010154610ab29190610cfd565b610abc9190610cdd565b90508160020154811115610ad1575060028101545b80826002016000828254610ae59190610d1c565b909155505042600383015560088054829190600090610b05908490610cc5565b90915550505050565b6001546001600160a01b03163314610b385760405162461bcd60e51b81526004016101cb90610ca1565b6000546040516323b872dd60e01b8152336004820152306024820152604481018390526001600160a01b03909116906323b872dd90606401600060405180830381600087803b158015610b8a57600080fd5b505af1158015610b9e573d6000803e3d6000fd5b50505060008281526004602052604090819020805460ff19166001179055517f355be8d2576f5cc168766d8032b25bb64c1d89de9fcd9ef5b6deb8a680655ad69150610bed9083815260200190565b60405180910390a150565b60008060208385031215610c0a578182fd5b823567ffffffffffffffff80821115610c21578384fd5b818501915085601f830112610c34578384fd5b813581811115610c42578485fd5b8660208260051b8501011115610c56578485fd5b60209290920196919550909350505050565b600060208284031215610c79578081fd5b5035919050565b60008060408385031215610c92578182fd5b50508035926020909101359150565b6020808252600a90820152693737ba102fb0b236b4b760b11b604082015260600190565b60008219821115610cd857610cd8610d4e565b500190565b600082610cf857634e487b7160e01b81526012600452602481fd5b500490565b6000816000190483118215151615610d1757610d17610d4e565b500290565b600082821015610d2e57610d2e610d4e565b500390565b6000600019821415610d4757610d47610d4e565b5060010190565b634e487b7160e01b600052601160045260246000fdfea2646970667358221220ce1faa2ca14f9be966769731c9819c3548b1c6a46124fc603fe13c9dbbdd85f164736f6c63430008040033",
  "immutableReferences": {},
  "source": "// SPDX-License-Identifier: UNLICENSED\npragma solidity ^0.8.0;\n\nstruct LandInfo {\n    address currentLender;\n    uint256 currentPricePerDay;\n    uint256 currentCollateral; // this is consuming\n    uint256 lastAccountTime; // The last checkpoint that the current lender's fee is calculated\n    uint256 graceUntil; // before this is grace period, 0 = N/A // TODO: check if this is consistent\n    address pendingLender;\n    uint256 pendingPricePerDay;\n    uint256 pendingCollateral;\n}\n\ninterface Land {\n    function transferFrom(\n        address from,\n        address to,\n        uint256 assetId\n    ) external;\n\n    function setUpdateOperator(uint256 assetId, address operator) external;\n}\n\ncontract RadicalMarket {\n    Land private _land;\n    address private _admin = msg.sender;\n\n    mapping(uint256 => LandInfo) private _landInfos; // tokenId => LandInfo\n    mapping(address => uint256) private _refunds; // user => refundTokenNum\n    mapping(uint256 => bool) private _registeredLands; // tokenId => whether _land is owned by this contract\n\n    // TODO: set functions\n    uint256 private _minimumPricePerDay = 1e14; // 0.0001 eth / day\n    uint256 private _minimumPeriod = 1; // days\n    uint256 private _gracePeriod = 200; // s\n\n    uint256 private _cumulatedFees = 0;\n\n    event LandRegistered(uint256 tokenId);\n    event LandUnregistered(uint256 tokenId);\n    event CurrentLenderUpdated(uint256 tokenId);\n    event PendingLenderUpdated(uint256 tokenId);\n    event Bid(\n        uint256 tokenId,\n        address from,\n        uint256 pricePerDay,\n        uint256 total\n    );\n\n    // TODO: use ownable\n    modifier onlyOwner() {\n        require(msg.sender == _admin, \"not _admin\");\n        _;\n    }\n\n    constructor(address land) {\n        _land = Land(land);\n    }\n\n    // set tokenids to _registeredLands\n    function registerLands(uint256[] calldata tokenids) external onlyOwner {\n        for (uint256 i = 0; i < tokenids.length; i++) {\n            _registerLand(tokenids[i]);\n        }\n    }\n\n    // TODO: shuold refund to the current owner and get the _land immediately?\n    function deregisterLands(uint256[] calldata tokenids) external onlyOwner {}\n\n    // give a specific parcel an acessment price and try to get the right to use it\n    // if there is no current lender, becomes the current lender (no minimum bid required), otherwise becomes the pending lender if outbid the existing pending lender. (need to provide enough collateral)\n    function bid(uint256 tokenId, uint256 pricePerDay) external payable {\n        require(_registeredLands[tokenId], \"_land not available!\");\n        LandInfo storage landInfo = _landInfos[tokenId];\n\n        // defensively add collateral and/or raise price\n        if (msg.sender == landInfo.currentLender) {\n            _updateCurrentStatus(landInfo);\n            require(\n                pricePerDay >= landInfo.currentPricePerDay,\n                \"can not lower price\"\n            );\n            require(\n                pricePerDay > landInfo.pendingPricePerDay,\n                \"need to outbid the competitor\"\n            );\n            require(\n                pricePerDay * _minimumPeriod <=\n                    msg.value + landInfo.currentCollateral,\n                \"not enough collateral\"\n            );\n\n            landInfo.currentPricePerDay = pricePerDay;\n            landInfo.currentCollateral += msg.value;\n            landInfo.graceUntil = 0;\n        } else {\n            // msg.sender is not current lender or there is no current lender\n            require(\n                pricePerDay * _minimumPeriod <= msg.value,\n                \"not enough collateral\"\n            );\n\n            // there is a current lender\n            if (landInfo.currentLender != address(0)) {\n                require(\n                    pricePerDay > landInfo.pendingPricePerDay,\n                    \"need to outbid the competitor\"\n                );\n                _updateCurrentStatus(landInfo);\n\n                _refunds[landInfo.pendingLender] += landInfo.pendingCollateral;\n\n                landInfo.pendingLender = msg.sender;\n                landInfo.pendingPricePerDay = pricePerDay;\n                landInfo.pendingCollateral = msg.value;\n                if (landInfo.graceUntil == 0) {\n                    landInfo.graceUntil = block.timestamp + _gracePeriod;\n                }\n                emit PendingLenderUpdated(tokenId);\n            } else {\n                // no current lender, become the _land's current lender\n                require(\n                    pricePerDay >= _minimumPricePerDay,\n                    \"Price/day too low\"\n                );\n                landInfo.currentLender = msg.sender;\n                landInfo.currentPricePerDay = pricePerDay;\n                landInfo.currentCollateral = msg.value;\n                landInfo.lastAccountTime = block.timestamp;\n                _land.setUpdateOperator(tokenId, msg.sender);\n                emit CurrentLenderUpdated(tokenId);\n            }\n        }\n        emit Bid(tokenId, msg.sender, pricePerDay, msg.value);\n    }\n\n    // called by anyone (bots) when requirements are met\n    // the pending lender replaces the current lender / or the _land operator is reset\n    function take(uint256 tokenId) external {\n        require(_registeredLands[tokenId], \"_land not available!\");\n        LandInfo storage landInfo = _landInfos[tokenId];\n        require(landInfo.pendingLender != address(0), \"none can take\");\n        _updateCurrentStatus(landInfo);\n        // TODO: seems this two can be combined, but lose readibility\n        if (landInfo.currentCollateral == 0) {\n            landInfo.currentCollateral = landInfo.pendingCollateral;\n            landInfo.currentLender = landInfo.pendingLender;\n            landInfo.currentPricePerDay = landInfo.pendingPricePerDay;\n            landInfo.graceUntil = 0;\n            landInfo.lastAccountTime = block.timestamp;\n            landInfo.pendingCollateral = 0;\n            landInfo.pendingLender = address(0);\n            landInfo.pendingPricePerDay = 0;\n            _land.setUpdateOperator(tokenId, landInfo.currentLender);\n            emit CurrentLenderUpdated(tokenId);\n        } else if (\n            (landInfo.currentPricePerDay < landInfo.pendingPricePerDay) &&\n            (landInfo.graceUntil <= block.timestamp)\n        ) {\n            _refunds[landInfo.currentLender] += landInfo.currentCollateral;\n            landInfo.currentCollateral = landInfo.pendingCollateral;\n            landInfo.currentLender = landInfo.pendingLender;\n            landInfo.currentPricePerDay = landInfo.pendingPricePerDay;\n            landInfo.graceUntil = 0;\n            landInfo.lastAccountTime = block.timestamp;\n            landInfo.pendingCollateral = 0;\n            landInfo.pendingLender = address(0);\n            landInfo.pendingPricePerDay = 0;\n            _land.setUpdateOperator(tokenId, landInfo.currentLender);\n            emit CurrentLenderUpdated(tokenId);\n        }\n    }\n\n    // get refund by a replaced \"current lender\" or a replaced \"pending lender\"\n    function refund() external {\n        uint256 fund = _refunds[msg.sender];\n        require(fund != 0, \"no refund available\");\n        _refunds[msg.sender] = 0;\n        payable(msg.sender).transfer(fund);\n    }\n\n    function getLandInfo(uint256 tokenId)\n        external\n        view\n        returns (LandInfo memory)\n    {\n        return _landInfos[tokenId];\n    }\n\n    function _registerLand(uint256 tokenId) internal onlyOwner {\n        _land.transferFrom(msg.sender, address(this), tokenId);\n        _registeredLands[tokenId] = true;\n        emit LandRegistered(tokenId);\n    }\n\n    function _updateCurrentStatus(LandInfo storage landInfo) internal {\n        uint256 fee = (landInfo.currentPricePerDay *\n            (block.timestamp - landInfo.lastAccountTime)) / 1 days;\n        if (fee > landInfo.currentCollateral) {\n            fee = landInfo.currentCollateral;\n\n            // TODO: if need an event in this case?\n        }\n\n        landInfo.currentCollateral -= fee;\n        landInfo.lastAccountTime = block.timestamp;\n\n        _cumulatedFees += fee;\n    }\n}\n",
  "sourcePath": "/Users/boyuanxu/Documents/GitHub/MAD-Radical-Market-Contract/contracts/RadicalMarket.sol",
  "compiler": {
    "name": "solc",
    "version": "0.8.4+commit.c7e474f2.Emscripten.clang"
  },
  "schemaVersion": "3.4.6",
  "updatedAt": "2022-03-13T04:42:54.586Z",
  "networkType": "ethereum",
  "devdoc": {
    "kind": "dev",
    "methods": {},
    "version": 1
  },
  "userdoc": {
    "kind": "user",
    "methods": {},
    "version": 1
  }
}